:020000040000FA
:040000000128FE2FA6
:100D1800230015188C2E95188C2E70089100151428
:100D28001308F200F3017208F0007308F1000800DC
:100D380022000C121130F0003A30890BA12EF00B72
:100D4800A12E003222000C161130F0003A30890B27
:100D5800AB2EF00BAB2E003222000C120800200044
:100D6800E60121001D159D111D129D121D131D1454
:100D78002030200066020318DD2E5330890BC22E66
:100D8800000021009D149D18C72E1C082000E100BA
:100D980021001B082000E0006635203E8600870100
:100DA8006008C03F6108C13F0130F2007208E607E1
:100DB800BC2EE401E501E701E80120006735203E8B
:100DC80086008701403FF200413FF3007208E407C4
:100DD8007308E53D0130E7070030E83D6808803AD0
:100DE800F20080307202031DFB2E20306702031CC4
:100DF800E12E20006508F3006408F2000530F336A0
:100E0800F20C890B032F7208E2007308E3006308F1
:100E1800F1006208F00008000A3021008C00103050
:100E280020008C00103022008C000A3023008C0037
:100E3800043021008E00203020008E002030220057
:100E48008E00043023008E005B3021009900980149
:100E58009E171E129E121E171E109E10A601A70195
:100E6800A801A9015330890B372F00000130F00089
:100E78000030F1008C2671082100AD007008AC002C
:100E88005330890B452F00000030F000F1008C260C
:100E980071082100A1007008A0005330890B522F5F
:100EA800000021002C08F500F4017408AC00750856
:100EB800AD0020082C07AA0021082D3DAB005330B7
:100EC800890B642F00000230F0000030F1008C26FE
:100ED80071082100A3007008A2005330890B722FFB
:100EE80000000330F0000030F1008C26710821006A
:100EF800AF007008AE005330890B802F000021002E
:100F08002E08F500F4017408AE007508AF00220839
:100F18002E07A40023082F3DA5005330890B922FDC
:100F2800000021002708803AF40080307402031D75
:100F38009F2F023026020318C72F22000C12B32657
:100F480021002B087102031DAB2F2A087002031819
:100F5800BA2F0D30F400FC30890BB02FF40BB02FF2
:100F68009C2601302100A6070030A73DB3262100AA
:100F78002B087102031DC22F2A087002031C952F2B
:100F8800A601A701952F5330890BC82F0000210017
:100F98002908803AF40080307402031DD52F0230EE
:100FA80028020318F62F22000C12B3262100250868
:100FB8007102031DE12F24087002031CF12F9C26E7
:100FC80001302100A8070030A93D0D30F400FC30A5
:100FD800890BEC2FF40BEC2FCB2FA801A9012200D1
:100FE8008C16CB2F22008C122100A801A901A60182
:080FF800A701912F2000102F2A
:020000040001F9
:04000E00C4CFFFD884
:00000001FF
